:020000040800F2
:10000000F81F0020CD050008B9020008BB02000857
:10001000C7020008D3020008DF0200080000000049
:10002000000000000000000000000000EB020008DB
:10003000ED02000800000000E3050008EF020008E0
:10004000E7050008E7050008E7050008F3020008D7
:10005000E7050008E7050008F1020008E7050008C9
:10006000E7050008E70500086B1D0008E705000824
:10007000E7050008E7050008E7050008E7050008B0
:10008000E7050008E7050008E7050008E7050008A0
:10009000E7050008E7050008E7050008311D00082E
:1000A000E7050008E7050008E7050008E705000880
:1000B000E7050008E7050008E7050008E705000870
:1000C000E7050008E7050008E7050008E705000860
:1000D000E70500087F19000895500008E7050008AB
:1000E000E7050008E7050008E7050008E705000840
:1000F000E7050008E7050008E7050008E705000830
:10010000E7050008E7050008E7050008E70500081F
:10011000E7050008E7050008E7050008E70500080F
:10012000E7050008E7050008E7050008E7050008FF
:1001300000F002F800F096F80AA090E8000C824463
:100140008344AAF10107DA4501D100F08BF8AFF240
:10015000090EBAE80F0013F0010F18BFFB1A43F0A5
:10016000010318475891000078910000103A24BF0D
:1001700078C878C1FAD8520724BF30C830C144BF0C
:1001800004680C607047000000230024002500264E
:10019000103A28BF78C1FBD8520728BF30C148BFEA
:1001A0000B6070476E2905F0EB83702905F04B85D5
:1001B000662906F05986652906F05686672906F0F5
:1001C00053866129AFF3008003681B0A28BF41F002
:1001D0008001692905F0B280642905F0AF80752996
:1001E00005F0AC806F2905F0D884782905F01785D3
:1001F000E92905F07384E42905F07084F52905F0F8
:100200006D84EF2905F0D584F82905F0168503687B
:10021000DB0928BF41F08001632905F0F4837329CD
:1002200005F0F983E32906F00780F32906F00C8036
:10023000002070471FB59DE8030005F0D9FA05F0CE
:10024000A0F906F0A1F804000020002106F0E0FD6E
:10025000401C60600020002106F0F0FDE0601FBD42
:1002600010B510BD06F06BF81146FFF7E3FF02F082
:1002700027FD06F04DF903B4FFF7F2FF03BC06F0CB
:100280007DF900000B49D1F800C04A685CF8043BD6
:100290001068184442F8040B8C4528BFA1F1DC0C0F
:1002A0008A4228BFA1F1DC02C1F800C04A6020F0F8
:1002B000004070479007002070470EA11C4801F0D5
:1002C0003AFB00BFFEE71BA1194801F034FB00BF59
:1002D000FEE727A1164801F02EFB00BFFEE733A181
:1002E000134801F028FB00BFFEE7704770477047D6
:1002F000704770470D0A2A2A2A2A2A2A2A2A2A2AD5
:100300002A2A2A2A2A2A2A2A2A48617264466175D8
:100310006C745F48616E646C65722A2A2A2A2A2AE4
:100320002A2A2A2A2A2A2A2A2A2A2A2A2A0D0A0094
:10033000003801400D0A2A2A2A2A2A2A2A2A2A2A89
:100340002A2A2A2A2A2A2A2A2A4D656D4D616E6197
:1003500067655F48616E646C65722A2A2A2A2A2AB8
:100360002A2A2A2A2A2A2A2A2A2A2A2A2A0D0A0054
:100370000D0A2A2A2A2A2A2A2A2A2A2A2A2A2A2A1A
:100380002A2A2A2A2A4275734661756C745F48616D
:100390006E646C65722A2A2A2A2A2A2A2A2A2A2A7A
:1003A0002A2A2A2A2A2A2A2A0D0A00000D0A2A2A7B
:1003B0002A2A2A2A2A2A2A2A2A2A2A2A2A2A2A2A9D
:1003C0002A55736167654661756C745F48616E6438
:1003D0006C65722A2A2A2A2A2A2A2A2A2A2A2A2AB8
:1003E0002A2A2A2A2A2A0D0A000000000CB5002019
:1003F000019000906C48006840F480306A490860C1
:1004000000BF6948006800F4003000900198401C6B
:100410000190009818B90198B0F5A06FF1D1624829
:10042000006800F4003010B10120009001E00020CD
:1004300000900098012843D15C48006840F010000B
:100440005A4908600846006820F003000860084622
:10045000006840F002000860534840685249486014
:100460000846406848600846406840F4806048603C
:100470000846406820F47C1048600846406840F414
:10048000881048600846006840F08070086000BF2F
:100490004548006800F000700028F9D042484068E4
:1004A00020F00300404948600846406840F00200E0
:1004B000486000BF3C48406800F00C000828F9D1B3
:1004C0000CBD10B5FFF792FF10BD10B5364800689F
:1004D00040F001003449086008464068344908404B
:1004E0003149486008460068324908402E49086092
:1004F0000846006820F4802008600846406820F420
:10050000FE0048604FF41F008860FFF7DAFF4FF0ED
:1005100000602949086010BD10B5002100200022AC
:10052000214B5B6803F00C0121B1042906D0082996
:1005300028D107E0214B224C236027E01F4B204CA1
:10054000236023E0184B5B6803F47010164B5B6864
:1005500003F48032022303EB904022B9194B43434A
:10056000174C23600DE0104B5B6803F4003323B19C
:10057000144B4343124C236003E0104B4343104C95
:10058000236003E00D4B0E4C236000BF00BF064B01
:100590005B68C3F303130C4CE15C094B1B68CB4055
:1005A000074C236010BD00000010024000200240F4
:1005B0000000FFF8FFFFF6FE08ED00E000127A00F1
:1005C0000000002000093D00040000200948804789
:1005D00009480047FEE7FEE7FEE7FEE7FEE7FEE725
:1005E000FEE7FEE7FEE7FEE704480549054A064B3D
:1005F00070470000CB04000831010008F807002014
:10060000F81F0020F8130020F8130020314901439F
:10061000314A1160704770B5002100230F22C47861
:1006200004B32D4C246804F4E064C4F5E064210AAA
:10063000C1F10403CA40447804FA03F184781440F9
:1006400021430901254C0678A155047804F01F05C3
:100650000124AC4005786D11AD0005F1E025C5F829
:10066000004109E0047804F01F050124AC401C4D52
:100670000678761145F8264070BD1A4A0A400243B2
:10068000154B1B1F1A60704739B1134A121D1268AF
:100690000243114B1B1D1A6006E00F4A121D12681F
:1006A00082430D4B1B1D1A607047042808D14FF080
:1006B000E021096941F004014FF0E022116107E0F7
:1006C0004FF0E021096921F004014FF0E0221161AF
:1006D000704700000000FA050CED00E000E400E0C7
:1006E00080E100E080FFFF1F10B50446FA48844215
:1006F00008D10121401500F0E3FD0021601500F054
:10070000DFFD17E0F548844208D10121001500F013
:10071000D7FD0021201500F0D3FD0BE0F048844206
:1007200008D10121C80300F0CBFD00214FF40040A7
:1007300000F0C6FD10BD30B5024600200023506811
:10074000E84C20400D790C6844EA052420435060B1
:100750009068E54C2040D1E902542C434D7944EA9D
:10076000450420439060D06A20F470000C7C641E25
:10077000E4B2234340EA0350D06230BD002101605F
:10078000017141718160C16001210174704721B123
:10079000826842F00102826003E0826822F0010276
:1007A0008260704721B1826842F48072826003E007
:1007B000826822F480728260704710B50023CBB249
:1007C0001AB144681C43446002E044689C4344609E
:1007D00010BD816841F0080181607047014600202A
:1007E0008A6802F008020AB1012000E00020704788
:1007F000816841F0040181607047014600208A68E9
:1008000002F004020AB1012000E00020704721B18B
:10081000826842F4A002826003E0826822F4A002AF
:1008200082607047014600208A6802F480020AB1A3
:10083000012000E00020704710B50A460021002387
:10084000416821F46041531E41EA4331416010BDCB
:1008500021B1426842F40062426003E0426822F43F
:10086000006242607047F0B504460D46002000214A
:10087000092D11DDE068A5F10A0606EB46070726FB
:1008800006FA07F18843A5F10A0606EB460603FAC5
:1008900006F10843E0600CE0206905EB45070726F8
:1008A00006FA07F1884305EB450603FA06F108430B
:1008B0002061072A0FDA606B561E06EB86071F269B
:1008C00006FA07F18843561E06EB860605FA06F17E
:1008D0000843606322E00D2A0FDA206BD61F06EB77
:1008E00086071F2606FA07F18843D61F06EB860601
:1008F00005FA06F10843206310E0E06AA2F10D0654
:1009000006EB86071F2606FA07F18843A2F10D06BB
:1009100006EB860605FA06F10843E062F0BD21B158
:10092000826842F48012826003E0826822F48012BE
:10093000826070470146C86C80B2704766484C3090
:100940000068704721B1426842F48062426003E06F
:10095000426822F480624260704721B1426842F4EA
:100960008052426003E0426822F480524260704745
:100970000A460021816821F4E041114381607047FB
:1009800021B1826842F40042826003E0826822F46E
:1009900000428260704721B1826842F40212826094
:1009A00003E0826822F40212826070470146002050
:1009B0008A6802F400120AB1012000E000207047AA
:1009C000F0B504461546002000220026092911DD55
:1009D000E068A1F10A0707EB470C072707FA0CF2BA
:1009E0009043A1F10A0707EB470703FA07F2104308
:1009F000E0600CE0206901EB410C072707FA0CF2DC
:100A0000904301EB410703FA07F210432061A06B0A
:100A1000C0F30156EF1C06F1010CA7EB0C0707EB26
:100A2000870C1F2707FA0CF29043EF1C06F1010C0C
:100A3000A7EB0C0707EB870701FA07F21043A06347
:100A4000F0BD10B50A4600210023816B21F440114E
:100A5000531E41EA0351816310BD08B50023009382
:100A60000090009B0B440093009B1A6008BD08B5E2
:100A7000024600200090009201F12800009B1844DB
:100A800000900098006880B208BD0A4600214168C5
:100A9000164B1940114341607047416282627047B2
:100AA0000A460021416821F01F011143416070474F
:100AB00040B109490831096841F40001064A083289
:100AC000116007E004490831096821F40001024A75
:100AD00008321160704700000024014000280140E6
:100AE000003C0140FFFEF0FFFDF7F1FFFFFD3FFF7F
:100AF0000246002013680B400BB1012000E00020EB
:100B00007047CA430260704770B502460020002358
:100B100000240B125568CEB205EA060415681D4084
:100B200015B10CB1012000E0002070BD00220A12B6
:100B3000D343036070470000002044490860091D4A
:100B40000860091D0860091D086041483F491431CB
:100B50000860704700213D498279002A3AD00A4650
:100B6000126803689A430B461A600A1D12680368EC
:100B70009A430B1D1A60027911440A6803681A43EC
:100B80000A60324A0832126803689A432F4B0833CE
:100B90001A601A1D126803689A432C4B0C331A60B2
:100BA0004279102A0ED11A1F126803681A43274B84
:100BB00008331A601A1D126803681A43234B0C335A
:100BC0001A600DE02149427911440A6803681A430A
:100BD0000A6005E0027911440A6803689A430A60D2
:100BE00070470021016001710C2141710021817168
:100BF00070471649103109680143144A10321160D8
:100C0000704701460020114A143212680A400AB1A6
:100C1000012000E0002070470C4914310860704743
:100C2000014600200022094B1B6803EA0102074B22
:100C300014331B680B4013B10AB1012000E00020FF
:100C400070470249143108607047000000040140F9
:100C5000FFFF0F0010B50446CC48844208D10121A3
:100C6000042000F02DFB0021042000F029FB46E0C9
:100C7000C748844208D10121082000F021FB00214F
:100C8000082000F01DFB3AE0C248844208D101214F
:100C9000102000F015FB0021102000F011FB2EE0C9
:100CA000BD48844208D10121202000F009FB002129
:100CB000202000F005FB22E0B848844208D1012141
:100CC000402000F0FDFA0021402000F0F9FA16E083
:100CD000B348844208D10121802000F0F1FA0021BC
:100CE000802000F0EDFA0AE0AE48844207D10121ED
:100CF000801500F0E5FA0021A01500F0E1FA10BD22
:100D000010B50121084600F0DBFA0021012000F0B7
:100D1000D7FA10BD2DE9F04102460025002600203B
:100D200000230024002791F803C00CF00F0591F870
:100D300003C00CF0100CBCF1000F03D091F802C0FE
:100D40004CEA050591F800C0BCF1000F31D01468E1
:100D500000202BE04FF0010C0CFA00F3B1F800C0BA
:100D60000CEA03069E4220D183004FF00F0C0CFAD0
:100D700003F7BC4305FA03FC4CEA040491F803C0F2
:100D8000BCF1280F06D14FF0010C0CFA00FCC2F8A0
:100D900014C00AE091F803C0BCF1480F05D14FF030
:100DA000010C0CFA00FCC2F810C0401C0828D1D37A
:100DB0001460B1F800C0BCF1FF0F34DD54680020AE
:100DC0002EE000F1080C4FF0010808FA0CF3B1F81E
:100DD00000C00CEA03069E4221D183004FF00F0CA5
:100DE0000CFA03F7BC4305FA03FC4CEA040491F83F
:100DF00003C0BCF1280F05D100F1080C08FA0CF86B
:100E0000C2F8148091F803C0BCF1480F07D100F17B
:100E1000080C4FF0010808FA0CF8C2F81080401CCA
:100E20000828CED35460BDE8F0814FF6FF710180F1
:100E3000022181700421C17070470246002093682E
:100E40000B400BB1012000E000207047014688688C
:100E500080B2704702460020D3680B400BB10120DE
:100E600000E0002070470146C86880B27047016109
:100E70007047416170470AB1016100E0416170470C
:100E8000C16070474FF480320A43826181618261A0
:100E900082698269704702460020434B18684FF60A
:100EA0008073184040EA021008433F4B18607047B7
:100EB0003E49C8617047F0B50A460023002400216E
:100EC000002500F00046B6F1004F02D1364EF16920
:100ED00001E0354E7168C0F3034583B200F440165B
:100EE000B6F5401F08D121F070612F4E766826F0CC
:100EF00070662D4F7E6012E000F48016B6F5801FFC
:100F000006D1032606FA05F4A14341F0706106E01C
:100F1000460D360103FA06F6B14341F0706122B185
:100F2000460D360103FA06F6314300F00046B6F1ED
:100F3000004F02D11C4EF16101E01B4E7160F0BD0B
:100F400030B500228B071C0F0F2303FA04F2164B57
:100F500008338C1053F824309343134C08348D100D
:100F600044F8253023468C1053F824308C07240F86
:100F700000FA04F423430C4C08348D1044F8253057
:100F800030BD0A49DC3108607047000000080140AC
:100F9000000C014000100140001401400018014005
:100FA000001C0140002001400000014000002042E0
:100FB000DF48006840F00100DD49086008464068ED
:100FC000DC490840DA49486008460068DA490840C8
:100FD000D74908600846006820F480200860084669
:100FE000406820F4FE0048604FF41F00886070479E
:100FF000CF49096821F48031CD4A11601146096852
:1010000021F480211160B0F5803F03D0B0F5802F2E
:101010000ED106E0C649096841F48031C44A116026
:1010200007E0C349096841F4A021C14A116000E00A
:1010300000BF00BF704710B501460022002300200A
:101040004A11012A02D1BA4C236806E0022A02D1D1
:10105000B74C236A01E0B64C636A01F01F02012419
:1010600094401C400CB1012000E0002010BD38B5B8
:10107000002000900024002500BF3120FFF7DBFF97
:1010800005460098401C00900098B0F5A06F01D074
:10109000002DF2D03120FFF7CEFF08B1012400E08F
:1010A0000024204638BD01460020A14A106820F0E7
:1010B000F80040EAC10010607047A049086070471E
:1010C000024600209A4B586820F47C1042EA010343
:1010D0001843974B58607047984908667047014617
:1010E0000020934A506820F0030008435060704786
:1010F0008F48406800F00C007047014600208C4A81
:10110000506820F0F000084350607047014600200E
:10111000874A506820F4E0600843506070470146F9
:101120000020834A506820F4605040EAC1005060BB
:10113000704729B17E4A527A02437D4B5A7204E0CD
:101140007B4A527A82437A4B5A7270477B49D83134
:101150000860704701460020754A506820F44040FE
:101160000843506070470021714A20321170704A64
:1011700082F82010012802D004280AD104E00121BD
:101180006B4A2032117005E00521694A2032117046
:1011900000E000BF00BF70476949086070476449BC
:1011A000096A0143624A116270476549443908601F
:1011B000704730B500210022002400235C4D6D688B
:1011C00005F00C0121B1042905D0082923D105E03F
:1011D0005C4D056022E05B4D05601FE0544D6D687D
:1011E00005F47012524D6D6805F48034022505EB4C
:1011F00092421CB9544D554305600BE04C4D6D684F
:1012000005F400351DB1504D5543056002E04D4DCC
:101210005543056002E04B4D056000BF00BF444DE3
:101220006D6805F0F0010909484D6B5C0568DD400B
:1012300045603F4D6D6805F4E061090A434D6B5C04
:101240004568DD4085603A4D6D6805F46051C90A16
:101250003E4D6B5C4568DD40C560354D6D6805F4FD
:101260004041890B3A4D6B5CC568B5FBF3F50561F0
:1012700030BD29B12E4A526902432D4B5A6104E018
:101280002B4A526982432A4B5A61704729B1284A36
:1012900092690243264B9A6104E0254A926982438F
:1012A000234B9A61704729B1214AD2690243204BEE
:1012B000DA6104E01E4AD26982431D4BDA6170474D
:1012C00029B11B4AD2680243194BDA6004E0184A7C
:1012D000D2688243164BDA60704729B1144A12690A
:1012E0000243134B1A6104E0114A12698243104B06
:1012F0001A61704712494039086070470F49C86445
:1013000070470B49C87170470948406A40F08070C7
:1013100007494862704701460020054A92680A4022
:101320000AB1012000E0002070470149887270472F
:10133000001002400000FFF8FFFFF6FE00004242EE
:101340008004424200127A0000093D00140000208F
:101350002400002010B50446FB48844209D1012135
:101360008803FFF7ADFF00214FF48040FFF7A8FF8F
:1013700032E0F648844209D101214804FFF7ADFF6D
:1013800000214FF40030FFF7A8FF25E0F048844229
:1013900009D101218804FFF7A0FF00214FF480202C
:1013A000FFF79BFF18E0EB48844209D10121C804F4
:1013B000FFF793FF00214FF40020FFF78EFF0BE0B3
:1013C000E548844208D101210805FFF786FF002186
:1013D0004FF48010FFF781FF10BD2DE9F04786B074
:1013E00005460E460024A24600BFA1460027B0894C
:1013F00000B100BF2F462C8A4CF6FF700440F088E5
:1014000004432C82AC894EF6F3100440B088318935
:101410000843718908430443AC81AC8A4FF6FF400E
:101420000440B0890443AC8201A8FFF7C2FEC6485D
:10143000874202D1DDF810A001E0DDF80CA0A889F8
:1014400000F4004040B10AEBCA0000EB0A1031681A
:101450004900B0FBF1F807E00AEBCA0000EB0A1004
:1014600031688900B0FBF1F86420B8FBF0F00401AA
:101470002009642101FB1089A88900F4004040B1D3
:10148000322000EBC900B0FBF1F000F0070004438C
:1014900008E0322000EB09106421B0FBF1F000F00D
:1014A0000F0004432C8106B0BDE8F0874FF41651BD
:1014B000016000218180C18001810C2141810021D6
:1014C0008181704710B502460020108A4FF2FF0359
:1014D00018400B884C8823438C882343CC882343B3
:1014E0001843108210BD0021018041808180C1809D
:1014F000704721B1828942F40052828104E08289DE
:101500004DF6FF731A4082817047F0B50346002400
:1015100000260025002040F66A17B94200D100BF1E
:101520001846C1F3421401F01F06012707FA06F519
:10153000012C01D10C3004E0022C01D1103000E06C
:1015400014301AB107682F43076002E00768AF4301
:101550000760F0BD1AB1838A0B43838202E0838A5D
:101560008B4383827047028A4FF6F0731A400282DF
:10157000028A0A430282704782894FF2FF731A403F
:10158000828182890A438281704721B1828942F037
:101590000202828104E082894FF6FD731A40828143
:1015A0007047028A4FF6DF731A400282028A0A43AA
:1015B0000282704721B1028A42F48042028204E032
:1015C000028A4BF6FF731A4002827047C1F3080289
:1015D0008280704701468888C0F30800704781897F
:1015E00041F0010181817047028BD2B20283028BEC
:1015F00042EA012202837047028B02F47F42028397
:10160000028B0A430283704721B1828A42F0200292
:10161000828204E0828A4FF6DF731A40828270472A
:1016200021B1828A42F01002828204E0828A4FF65F
:10163000EF731A408282704721B1828A42F0080219
:10164000828204E0828A4FF6F7731A4082827047E2
:1016500021B1828942F40042828103E08289C2F38F
:101660000E028281704721B1828A42F40062828236
:1016700004E0828A4FF2FF731A4082827047828AA6
:101680004FF6FB731A408282828A0A438282704735
:1016900021B1828A42F00202828204E0828A4FF6FD
:1016A000FD731A408282704702460020B1F5007F28
:1016B00000D100BF13880B400BB1012000E00020D7
:1016C000704701F40072B2F5007F00D100BFCA4339
:1016D0000280704770B502460024002300250020D8
:1016E00040F66A16B14200D100BFC1F3421501F0C5
:1016F0001F03012606FA03F3012D02D19689334018
:1017000006E0022D02D1168A334001E0968A33406A
:101710000C12012606FA04F41688344013B10CB1F9
:10172000012000E0002070BD10B50022002340F62B
:101730006A14A14200D100BF0A1201249440A3B24E
:10174000DC43048010BD000000380140004400402C
:1017500000480040004C00400050004000EBC00139
:10176000C9004FF0E0225161002191610521116112
:1017700000BF4FF0E021096901F480310029F8D061
:1017800004214FF0E0221161704700B5034603E0E9
:101790004FF47A70FFF7E2FF181EA3F10103F7D1AF
:1017A00000BD10B5044603E04FF47A70FFF7EDFF7B
:1017B000201EA4F10104F7D110BD000010B586B0C1
:1017C000044601210420FFF761FD01218803FFF792
:1017D0005DFD18208DF817004FF40070ADF814006F
:1017E00003208DF8160005A96B48FFF793FA042033
:1017F0008DF817000002ADF8140003208DF81600D4
:1018000005A96548FFF786FA01940020ADF810009D
:101810000C20ADF80E000020ADF80C00ADF80A0069
:10182000ADF8080001A95D48FFF7D7FD01215B482D
:10183000FFF75FFE012240F225515848FFF765FE91
:1018400025208DF8000001208DF8030000208DF880
:10185000010002208DF802006846FEF7DCFE06B0AB
:1018600010BD10B586B0044601210420FFF70EFD1F
:1018700001214804FFF717FD18208DF817000420F8
:10188000ADF8140003208DF8160005A94248FFF7B3
:1018900041FA04208DF817000820ADF81400032049
:1018A0008DF8160005A93C48FFF734FA0194002092
:1018B000ADF810000C20ADF80E000020ADF80C00C3
:1018C000ADF80A00ADF8080001A93548FFF785FD1D
:1018D00001213348FFF70DFE012240F22551304827
:1018E000FFF713FE26208DF8000001208DF803007D
:1018F00000208DF801008DF802006846FEF78BFE8F
:1019000006B010BD2DE9F04107460C4615460026ED
:101910000DE014F8011B3846FFF758FE00BF4021C8
:101920003846FFF7C1FE0028F9D0701C86B2AE42DF
:10193000EFDBBDE8F0810FB430B5CBB0054601ACAC
:1019400050A800904FF4947101A8009B4F9A03F0A7
:101950007FFC002000900BE014F8011B2846FFF7E5
:1019600035FE00BF40212846FFF79EFE0028F9D033
:1019700020780028F0D14BB030BC5DF814FB10B5D6
:1019800040F225510548FFF7A5FE18B12021034874
:10199000FFF797FE10BD000000080140003801402D
:1019A0000044004008B501210420FFF76FFC02202D
:1019B000ADF8000010208DF8030003208DF8020020
:1019C00069466948FFF7A6F908BD08B5012104205A
:1019D000FFF75CFC0220ADF8000048208DF8030002
:1019E00003208DF8020069465F48FFF793F908BDB0
:1019F00010B5FFF7D7FF00205C4908601420FFF7FF
:101A0000C4FE01205A49C1F884011E20FFF7A6FE3A
:101A100010BD10B50024FFF7D8FF04E0601CC4B26D
:101A20000120FFF79BFE51488038006808B1642C04
:101A3000F4DB642C01DB012010BD002404E0601CF9
:101A4000C4B20120FFF78AFE48488038006808B910
:101A5000642CF4DB642C01DB0120EDE70020EBE7D4
:101A600010B5002404E0601CC4B20120FFF776FE2C
:101A70003E488038006808B1642CF4DB002404E0A0
:101A8000601CC4B20120FFF769FE38488038006846
:101A900008B9642CF4DB2820FFF760FE3348803857
:101AA000006808B1012010BD0020FCE770B50024DB
:101AB000002506E06006040EFFF7D2FF0443681C11
:101AC000C5B2082DF6DB204670BD7CB505460E4636
:101AD000FFF78EFFFFF79DFF50BB002405E0FFF7E7
:101AE000E5FF0DF80400601CC4B2052CF7DB9DF87F
:101AF00000009DF8011008449DF8021008449DF86C
:101B0000031008449DF80410884211D19DF801008B
:101B10009DF8001001EB810100EB410030709DF851
:101B200003009DF8021001EB810100EB41002870D9
:101B30007CBD08B501210420FFF7A8FB0220ADF809
:101B4000000010208DF8030003208DF80200694684
:101B50000548FFF7DFF802210348FFF788F9FFF790
:101B600047FFFFF756FF08BD0008014084012142EE
:101B70000000214200B587B001214FF40270FFF749
:101B800085FB4FF44040FFF7E5FA0220ADF8040072
:101B900000208DF8070001A92A48FFF7BBF82A4862
:101BA000FEF7A2FD002002908DF80C008DF80D00CC
:101BB0004FF4602004900020059001208DF818005B
:101BC00002A92148FEF7B7FD01211F48FEF7DFFDFE
:101BD0001D48FEF7FEFD00BF1B48FEF7FFFD002875
:101BE000FAD11948FEF704FE00BF1748FEF705FEBC
:101BF0000028FAD107B000BD70B50024002519E017
:101C00000623012209211048FEF72DFE01210E486E
:101C1000FEF7FDFD00BF02210B48FEF769FF00281B
:101C2000F9D00948FEF786FE04440220FFF7ADFD17
:101C3000681CC5B2052DE3DB0520B4FBF0F080B2D3
:101C400070BD0000000C01400024014000B587B0C9
:101C500001210520FFF71AFB01211820FFF716FBD1
:101C60007020ADF8180028208DF81B0006A94A48FE
:101C7000FFF750F805210020FFF762F90621002048
:101C8000FFF75EF904210020FFF75AF97020049055
:101C900000208DF8140008208DF8150001208DF823
:101CA000160004A8FEF756FF17208DF80C0001203F
:101CB0008DF80D008DF80E008DF80F0003A8FEF7CB
:101CC000AAFC0A208DF8080001208DF809000220E6
:101CD0008DF80A0001208DF80B0002A8FEF79BFC8E
:101CE00010208DF807008001ADF8040003208DF866
:101CF000060001A92948FFF70DF810208DF8030010
:101D00008002ADF8000003208DF8020069462448E7
:101D1000FFF700F800224FF480612048FFF7ABF88E
:101D200000224FF480411E48FFF7A5F807B000BD20
:101D300010B52020FEF774FF012804D1194908705E
:101D40000020194908702020FEF77BFF4020FEF795
:101D500067FF012805D102201249087000201249AE
:101D600008704020FEF76DFF10BD10B51020FEF783
:101D700057FF01280CD10D4908700B480078401C12
:101D80000949087008460078032801DD0020087022
:101D90001020FEF756FF10BD00080140000C014066
:101DA0000010014029000020280000202A00002007
:101DB000032000BF011EA0F10102D0B2FAD170478A
:101DC00010B54FF40071F848FFF753F84FF48071E5
:101DD000F548FFF74CF8FFF7EBFF4FF40071F248BE
:101DE000FFF745F810BD10B54FF40071EE48FFF74E
:101DF0003EF8FFF7DDFF4FF48071EB48FFF737F84F
:101E0000FFF7D6FF4FF48071E748FFF732F8FFF78E
:101E1000CFFF10BD70B5044600251FE004F0800020
:101E200028B14FF40071E048FFF721F804E04FF4C7
:101E30000071DD48FFF71DF8FFF7BAFF4FF480711E
:101E4000D948FFF714F8FFF7B3FF4FF48071D64875
:101E5000FFF70FF86006040E681CC5B2082DDDDB25
:101E600070BD10B54FF40071CF48FFF700F84FF484
:101E70008071CD48FEF7FBFFFFF79AFF4FF400712A
:101E8000C948FEF7F6FFFFF793FF4FF48071C6488D
:101E9000FEF7EFFFFFF78CFF10BD70B505460C464F
:101EA000FFF7DFFF7820FFF7B5FFFFF79CFF1CB1BE
:101EB0004020FFF7AFFF02E00020FFF7ABFFFFF786
:101EC00092FF2846FFF7A6FFFFF78DFFFFF778FF89
:101ED00070BD10B504461CB90021A620FFF7DDFF38
:101EE000012C03D10021A720FFF7D7FF10BD10B5AB
:101EF00004463CB90021C820FFF7CFFF0021A120F4
:101F0000FFF7CBFF012C07D10021C020FFF7C5FF51
:101F10000021A020FFF7C1FF10BD10B500218D20CA
:101F2000FFF7BBFF00211420FFF7B7FF0021AF2010
:101F3000FFF7B3FF10BD10B500218D20FFF7ADFFF7
:101F400000211020FFF7A9FF0021AE20FFF7A5FF19
:101F500010BD70B500242BE004F1B001C8B200211F
:101F6000FFF79BFF00210846FFF797FF0021102095
:101F7000FFF793FFFFF775FF7820FFF74BFFFFF7A1
:101F800032FF4020FFF746FFFFF72DFF002509E055
:101F9000864901EBC501085DFFF73CFFFFF723FF12
:101FA000681CC5B2802DF3DBFFF70AFF601CC4B2CA
:101FB000082CD1DB70BD70B500240CE0002506E0D4
:101FC00000207A4901EBC5010855681CC5B2802D77
:101FD000F6DB601CC4B2082CF0DBFFF7BAFF70BD63
:101FE000F0B514460B46CF1701EB5777C7F3C7027E
:101FF000CF1701EB5777FF10A1EBC707FEB2012304
:10200000B340DDB24CB1694B03EBC0039B5C2B4387
:10201000664F07EBC007BB541AE0644B03EBC003E9
:102020009B5CDB43614F07EBC007BB545F4B03EB8B
:10203000C0039B5C2B435D4F07EBC007BB545B4B5E
:1020400003EBC0039B5CDB43584F07EBC007BB545B
:10205000F0BD2DE9FF4F84B081468A4600200290F2
:1020600083460698A0EB09040798A0EB0A06CDF872
:102070000490CDF800A0002C01DD012705E00CB98B
:10208000002702E04FF0FF376442002E02DD4FF0E0
:10209000010806E016B94FF0000802E04FF0FF38E3
:1020A0006642B44201DD254600E03546002003903B
:1020B0001EE0009AD1B2019AD0B2119AFFF790FFB8
:1020C000029820440290B3440298A84205DD029889
:1020D000401B0290019838440190AB4504DDABEB06
:1020E000050B0098404400900398401C80B2039078
:1020F000691C03988842DCDB08B0BDE8F08F2DE94D
:10210000F04306460F4690460025444643E03A1BFE
:10211000D1B27219D0B20122FFF762FF3A1BD1B2DD
:10212000721BD0B20122FFF75BFF3A19D1B2721BCA
:10213000D0B20122FFF754FF3A19D1B27219D0B2CE
:102140000122FFF74DFF7A19D1B23219D0B2012224
:10215000FFF746FF7A1BD1B23219D0B20122FFF746
:102160003FFF7A1BD1B2321BD0B20122FFF738FFFA
:102170007A19D1B2321BD0B20122FFF731FF6D1CA8
:1021800005FB05F004FB040008FB1809B9F1000F7A
:1021900001DD641E6D1E6000604308FB08F188428B
:1021A000B5DABDE8F0830000000C014034000020E7
:1021B0002DE9FE4F0746884692461C460197CDF80A
:1021C0000080082C02D14FF006091FE02046E317DB
:1021D00004EB5373DB1021464FEAE47C04EB5C7C98
:1021E0004FEAEC0CA4EBCC0CBCF1000F02D04FF08A
:1021F000010C01E04FF0000C6344224604EBD27C5A
:102200004FEA6C0C03FB0CF303F0FF09AAF120006A
:10221000C6B200255EE0082C07D106EB4600FE4959
:1022200001EB400010F805B01DE00C2C07D106EBC7
:102230004600FA4901EB800010F805B013E0102CBD
:1022400005D1F74800EB061010F805B00BE0182C8C
:1022500007D106EBC600F34901EB800010F805B08A
:1022600001E0BDE8FE8F002002901CE00BF00100B1
:1022700028B1414638460C9AFFF7B2FE09E00C98A7
:1022800008B9012000E00020024641463846FFF729
:10229000A7FE4FEA6B0B08F1010000F0FF0802985F
:1022A000401CC0B2029002980828DFDB781CC7B23D
:1022B000082C0BD004EBD4714A100199791A8A4288
:1022C00004D1019F00980830C0B20090DDF8008072
:1022D000681CC5B24D459EDB00BFC2E72DE9F8433F
:1022E00006460F4614461D46DDF8208013E0CDF863
:1022F000008022782B4639463046FFF759FF082DDB
:1023000002D1B01DC6B205E0284605EBD07106EB40
:102310006101CEB2641C2078202802DB20787E2860
:10232000E5DDFFF716FEBDE8F88310B50246012093
:1023300000E050430B1EA1F10104E1B2F9D110BD40
:102340002DE9FF4F83B0064691461F46DDE9104A4E
:102350004FF0000B082C01D14FF0020B002532E0AA
:10236000781B401EC1B20A20FFF7DFFFB9FBF0F077
:102370000A21B0FBF1F201FB1208B8F1000F0FD1F6
:1023800004EBD4710BEB610101FB0561C8B223467C
:102390003022CDF800A002940499FFF709FF10E065
:1023A00004EBD4710BEB610101FB0561C8B208F1CC
:1023B0003001CAB22346CDF800A002940499FFF779
:1023C000F7FE681CC5B2BD42CADBFFF7C2FD07B00D
:1023D000BDE8F08F2DE9FC4F0746884616461C469F
:1023E000BB46CDF804802046E21704EB5272D210AF
:1023F0002146E31704EB5373DB10A4EBC3030BB1CB
:10240000012300E000231A44624392B200920025A7
:1024100055E0102C05D1844800EB461010F805A0BB
:102420001BE0182C07D106EBC600804901EBC00069
:1024300010F805A011E0202C05D17D4800EBC61056
:1024400010F805A009E0402C05D17A4800EB4620A1
:1024500010F805A001E0BDE8FC8F4FF000091CE07A
:102460000AF0010028B1414638460B9AFFF7B8FD43
:1024700009E00B9808B9012000E00020024641461F
:102480003846FFF7ADFD4FEA6A0A08F1010000F097
:10249000FF0809F1010000F0FF09B9F1080FDFDBC7
:1024A000781CC7B2A7EB0B00A04204D15F4601988D
:1024B0000830C0B20190DDF80480681C85B2009835
:1024C0008542A6DB00BFC6E708B58046894692462E
:1024D000002600274BE04FB91023324618218020F8
:1024E000CDF800A0FFF776FF701CC6B2464522D19A
:1024F0004FF0000B1AE0012410E000250AE04E48DE
:1025000000EBC400415D601E4B4A02EBC000415528
:10251000681CC5B2082DF2DB601CC4B2902CECDB49
:10252000FFF717FD0BF1010000F0FF0B4FEA091058
:102530005845E0DC0026781CC7B2102F00D10027D8
:10254000012410E000250AE03B4800EBC400415D97
:10255000601E394A02EBC0004155681CC5B2082D07
:10256000F2DB601CC4B2902CECDBFFF7F2FCB2E7AC
:102570002DE9FF5F05460E4617461C46DDF83C90E8
:102580004FF0000A0095B3462046E21704EB527262
:10259000D2102146E31704EB5373DB10A4EBC30303
:1025A0000BB1012300E000231A44D4B24FF000081D
:1025B00058E0002003904EE00E9810F80A000290B8
:1025C0000AF101001FFA80FA002001901DE0029834
:1025D00000F0010028B14A4631462846FFF700FDC9
:1025E0000AE0B9F1000F01D1012000E0002002460D
:1025F00031462846FFF7F4FC029840100290701C08
:10260000C6B20198401CC0B2019001980828DEDBD8
:10261000681CC5B2009811E06C6E00089470000848
:1026200008750008F87A000854880008148E00081D
:102630005C8E0008DC8E000834000020281AB842A6
:1026400004D1009D0BF1080000F0FF0B5E460398DB
:10265000401CC0B203900398B842ADDB08F1010002
:1026600000F0FF08A045A4DBFFF773FCBDE8FF9F67
:1026700008B501210820FEF709FE4FF48070ADF87F
:10268000000014208DF8030003208DF80200694635
:102690004148FEF73FFB4FF480713F48FEF7E7FBF0
:1026A0004FF40070ADF8000069463B48FEF732FB7E
:1026B0004FF400713848FEF7DAFBC820FFF765F8E1
:1026C0000021AE20FFF7E9FB00210846FFF7E5FBFC
:1026D00000211020FFF7E1FB00214020FFF7DDFB88
:1026E00000218120FFF7D9FB0021CF20FFF7D5FB88
:1026F0000021A120FFF7D1FB0021C820FFF7CDFB6F
:102700000021A620FFF7C9FB0021A820FFF7C5FB89
:1027100000213F20FFF7C1FB0021D320FFF7BDFBC5
:1027200000210846FFF7B9FB0021D520FFF7B5FBD4
:1027300000218020FFF7B1FB0021D920FFF7ADFB7E
:102740000021F120FFF7A9FB0021DA20FFF7A5FB0C
:1027500000211220FFF7A1FB0021DB20FFF79DFBEA
:1027600000213020FFF799FB00212020FFF795FB87
:1027700000210220FFF791FB00218D20FFF78DFB48
:1027800000211420FFF789FBFFF715FC0021AF2083
:10279000FFF783FB08BD0000000C01407CB500255D
:1027A00000244FF4A060FDF731FF4FF4E130FFF754
:1027B00005F84FF4E130FFF754F8FFF759FFF4A1A3
:1027C000F848FFF7B8F802E0C820FEF7DEFFFFF791
:1027D000B0F90028F8D101201023F3A218210090AD
:1027E0001420FFF77BFD02F0EFFB01201023F1A284
:1027F000182100900020FFF771FD01201023F2A2A4
:10280000182100900020FFF769FD01201023F2A29B
:10281000302100901E20FFF761FDF1A1E148FFF794
:102820008AF803E04FF4FA70FEF7AFFFF3A1F5A0CA
:1028300002F06BFB0028F5D1FEA1DA48FFF77BF828
:1028400003E04FF4FA70FEF7A0FF00F084FC0028CC
:10285000F7D1FFF7B0FBB4E0FDF714FD642190FB66
:10286000F1F201FB1200401CF5490870FDF70AFD6A
:10287000642190FBF1F201FB1200401CF149087049
:10288000681C80B2054632287EDBEF4800780328BA
:1028900003D00020EC49087098E0EA49E848FFF7C7
:1028A00014F9002010232122052100900A20FFF7AF
:1028B00091FD002010232222052100901C20FFF70B
:1028C00089FD002010232322052100902E20FFF7F0
:1028D00081FD002010232422052100904020FFF7D5
:1028E00079FD002010232522052100905220FFF7BA
:1028F00071FD002010232622052100906420FFF79F
:1029000069FD0120102300221E2100901046FFF7D0
:1029100061FD0120102302221E2100901220FFF7EA
:1029200059FD012010230246302100900020FFF7BE
:1029300051FD012010230222302100901220FFF7C8
:1029400049FD01201023C1A21E2100905A20FFF74B
:10295000C5FC01201023BEA2302100905A20FFF7B1
:10296000BDFC012010210323CDE90010B4480278FA
:102970001E213C20FFF7E4FC012010210323CDE9B8
:102980000010B048027800E010E030213C20FFF752
:10299000D7FCAC480378AA480278AEA18148FEF77C
:1029A000CAFF00F082FC002502F090FA002002F03D
:1029B000E9FA044614B1204600F086FE0A20FEF72C
:1029C000E4FEA148007803283FF446AF00BF00E0D2
:1029D00003E09D4800780328FAD100BF7CBD1CB5F8
:1029E000012010231822002100900846FFF7F2FC76
:1029F000012010231922002100901220FFF7EAFC89
:102A0000012010231A22002100902420FFF7E2FC6D
:102A1000012010231B22002100903620FFF7DAFC52
:102A2000012010231C22002100904820FFF7D2FC37
:102A3000012010231D22002100905A20FFF7CAFC1C
:102A4000012010231E22002100906C20FFF7C2FC01
:102A5000002010231F2223210090FFF7BBFC002041
:102A600010232022232100901220FFF7B3FC002026
:102A7000102377A2232100905A20FFF72FFC01207A
:102A800005234FA21E2100903A20FFF727FC0120CA
:102A900005234BA2302100903A20FFF71FFCFFF7DF
:102AA000ABF80A2190FBF1F4012010210323224608
:102AB000CDE9001023213A20FFF742FCFFF749FA45
:102AC0001CBD1CB55F495E48FEF7FFFF01201023C7
:102AD0000022114600901046FFF77CFC01201023D5
:102AE0000246002100901220FFF774FC0120102301
:102AF0000222002100902420FFF76CFC012010230B
:102B00000322002100903620FFF764FC01201023EF
:102B10000422002100904820FFF75CFC01201023D4
:102B20000522002100905A20FFF754FC01201023B9
:102B30000622002100906C20FFF74CFC002010239F
:102B400002461E210090FFF745FC002010230222C0
:102B50001E2100901220FFF73DFC002010230122CF
:102B600030210090FFF736FC002010230222302194
:102B700000901220FFF72EFC0020102333A21E210C
:102B800000905A20FFF7AAFB0020102330A26BE030
:102B900020486172647761726520696E6974204FA4
:102BA0004B0D0A00003801404E6574776F726B69F7
:102BB0006E670000202020202020202020202020C0
:102BC000202020200000000020436F6E6E6563749B
:102BD000656420746F0000004F4E454E4554000060
:102BE000436F6E6E656374204D515454732053656A
:102BF000727665722E2E2E0D0A000000434F4E4E47
:102C00004543540041542B43495053544152543D81
:102C100022544350222C226D717474732E686563A4
:102C20006C6F7564732E636F6D222C313838330DE1
:102C30000A0000004E45545F4F4B0D0A0000000093
:102C40002B0000202C000020280000204300000062
:102C50002500000054454D503A25642048554D4903
:102C60003A25640D0A000000302100905A20FFF739
:102C700035FB01200523AFF2B802232100903A2052
:102C8000FFF72CFB012010210323CDE90010A648FB
:102C900002780F321E213A20FFF752FBA348047836
:102CA00001201021CDE90010E01704EB5070C21094
:102CB000032330213A20FFF743FBFFF74AF91CBDFD
:102CC0001CB5FFF7D5FCFEF7C1FFFEF732FFFEF79C
:102CD00051FFFFF770F9012010230A220021009014
:102CE0000846FFF777FB012010230B2200210090FC
:102CF0001220FFF76FFB012010230C22002100900F
:102D00002420FFF767FB012010230D2200210090F3
:102D10003620FFF75FFB012010230E2200210090D8
:102D20004820FFF757FB01201023142200210090B8
:102D30005A20FFF74FFB012010231522002100909D
:102D40006C20FFF747FB002010230F222421009066
:102D5000FFF740FB002010231A4624210090122088
:102D6000FFF738FB00201023112224210090084691
:102D7000FFF730FB0120102312222421009036207F
:102D8000FFF728FB01201023132224210090482064
:102D9000FFF720FBFFF7DDF8C5E004E0FFF70BF9D4
:102DA000002063490870624800780028F6D1614825
:102DB000007801280BD1FEF71FFFB0F52F7F03DD50
:102DC00000205C490870AEE0FFF77BFEAAE059489E
:102DD000007802280BD1FEF70FFFB0F52F7F03DD3F
:102DE0000020544908709EE0FFF7F9FD9AE0514831
:102DF000007803280BD1FEF7FFFEB0F52F7F03DD2F
:102E000000204C4908708EE0FFF7C8FC8AE04A4871
:102E10000078012805D1002281024848FEF72BF8EE
:102E200080E045480078022805D10122410243484C
:102E3000FEF721F876E0FEF7DFFEB0F52F7F45DDE7
:102E4000FFF7B9F80020102327221E21009012203E
:102E5000FFF7C0FA0020102328221E210090242012
:102E6000FFF7B8FA0020102329221E2100903620F7
:102E7000FFF7B0FA0020102329221E2100904820DD
:102E8000FFF7A8FA0020102329221E2100905A20C3
:102E9000FFF7A0FAFEF7B0FE0A2190FBF1F4012043
:102EA000102103232246CDE9001000213A20FFF72C
:102EB00047FAFFF74EF8012291032148FDF7DBFFA7
:102EC000012291021D48FDF7D6FF2BE000201023C0
:102ED0002A221E2100902420FFF77CFA00201023D4
:102EE0002B221E2100903620FFF774FA00201023B9
:102EF0002C221E2100904820FFF76CFA002010239E
:102F00002D221E2100905A20FFF764FA00224FF470
:102F100080410B48FDF7AFFF00224FF48061074866
:102F2000FDF7A9FF00BF38E72B0000202C00002090
:102F30002A0000202800002029000020000C014069
:102F400000100140F0B58BB005460026002428464D
:102F500002F072FBC7B20DB11C2F02DA01200BB0D8
:102F6000F0BD06E0A85D01A988550020A855701C99
:102F7000C6B2BE42F6DB002001A988550026002417
:102F800055E001A8805D2B2810D008DC202814D043
:102F900023282ED0252825D026283FD130E02F28E1
:102FA00012D03D2833D03F2838D114E02819FBA196
:102FB00002F061FBE01CC4B236E02819F8A102F06F
:102FC0005AFBE01CC4B22FE02819F6A102F053FB13
:102FD000E01CC4B228E02819F3A102F04CFBE01C6D
:102FE000C4B221E02819F1A102F045FBE01CC4B2F3
:102FF0001AE02819EEA102F03EFBE01CC4B213E077
:103000002819ECA102F037FBE01CC4B20CE028192F
:10301000E9A102F030FBE01CC4B205E001A8805D2C
:103020002855601CC4B200BF00BF701CC6B2BE42AF
:10303000A7DB0020285500BF91E72DE9F04FC9B06C
:1030400005460C4616461F460DF5A47898E8000F75
:103050000020489055B14CB1D848864206D32FB1D4
:10306000B9F1000F02D0BAF1780F03DA012049B0AC
:10307000BDE8F08F402118A802F070FB384602F03E
:10308000DBFA05903B4648AA4021009018A800F0C2
:1030900055FF482106A802F061FBBBF1000F09D0E3
:1030A000C7A03346C8A248218DE8310006A802F027
:1030B000FFF809E0C2A03346C9A248218DE81101FA
:1030C000039506A802F0F4F8402128A802F046FB78
:1030D00006A802F0B1FA059018A802F0ADFA049023
:1030E00028A8009006AA18A8DDE9041300F0D2FD74
:1030F00000204890402138A802F030FB28A802F0B8
:103100009BFA059028AB48AA4021009038A800F00F
:1031100075FE38A8FFF716FFBBF1000F0CD038A8DA
:10312000A7A12B46B6A2CDE90046CDE90210514633
:10313000484602F0BDF80CE038A8A1A12B46BE4AD3
:10314000CDE901860094CDE903105146484602F0CE
:10315000AFF800208BE730B5B3B000202F9030904F
:10316000319032900125A02107AAB4A3CDE9003205
:10317000CDE90210B3A3BF4ABFA1C2A0FFF75DFF14
:1031800007A8BDA3ADA2C2A10090CD48FEF7D3FB16
:103190002FA8002102910391CDE9041008460121D6
:1031A0000B02A6A2CDE9001007A9B3A001F027F8F1
:1031B000002842D1309A91B22F9801F0CCFEFA202B
:1031C00001F0E0FE0446002C33D0204600F0E2FF80
:1031D00002282ED1204601F077F9062823D2DFE815
:1031E00000F003090E13181DB6A1B548FEF7A3FBA6
:1031F00000251DE0B8A1B248FEF79DFB18E0BDA177
:10320000AF48FEF798FB13E0C3A1AD48FEF793FB70
:103210000EE0C9A1AA48FEF78EFB09E0CFA1A8489D
:10322000FEF789FB04E0D8A1A548FEF784FB00BFA8
:1032300000BF2FA800F066FF03E0DAA1A048FEF768
:103240007AFB284633B030BD10B58CB0044630212F
:10325000684602F083FADCA1204602F0C9F9302169
:10326000684602F07BFADD480278DDA1684602F08C
:1032700009F86946204602F0FEF93021684602F05E
:103280006DFADE480278DEA1684601F0FBFF694670
:10329000204602F0F0F9E0A1204602F0ECF92046C9
:1032A00002F0CAF9C0B20CB010BD30B5C5B00020F4
:1032B000419042904390449000240025D7A180483B
:1032C000FEF739FB4FF4807101A802F047FA01A81C
:1032D000FFF7BAFF0446002C26D041A8002322465F
:1032E00056A1009064A001F0E0F9C8B908E001A877
:1032F000415D429A501C429041988154681C05B22D
:10330000A542F4DB429A91B2419801F024FECBA190
:103310006B48429AFEF70FFB41A800F0F3FE03E072
:10332000CAA16748FEF707FB45B030BD70B588B04D
:1033300005460C4600200490059006900790234611
:103340002A46CAA15E48FEF7F6FA204602F074F952
:10335000064604A80121002200923346CDE901214E
:103360000390224629460A2001F0BDF838B9059A93
:1033700091B2049801F0EFFD04A800F0C3FE08B07C
:1033800070BD00B595B0002011901290139014906C
:1033900003A8029029A038A378E10000253242005A
:1033A00025323000253246002533460025323500CF
:1033B0002532330025323600253344009554415DD3
:1033C000736861310000000025640A25730A707279
:1033D0006F64756374732F25730A257300000000F2
:1033E00025640A25730A70726F64756374732F25E0
:1033F000732F646576696365732F25730A257300DF
:1034000076657273696F6E3D2573267265733D70C4
:10341000726F64756374732525324625732665744F
:103420003D2564266D6574686F643D257326736958
:10343000676E3D2573000000749200087465737414
:10344000000000007130466A476273626656755626
:103450003054744A7378326A35572B5A2F7A507425
:10346000682B667852794831667933644C336B3D0A
:103470000000000000CF9D74725442763331384909
:1034800079760000323031382D31302D3331000063
:103490004F6E654E45545F4465764C696E6B0D0A00
:1034A0004E414D453A2025732C0950524F49443A1C
:1034B0002025732C094B45593A25730D0A0000004D
:1034C00000380140546970733A09C1ACBDD3B3C927
:1034D000B9A60D0A000000005741524E3A09C1AC8E
:1034E000BDD3CAA7B0DCA3BAD0ADD2E9B4EDCEF358
:1034F0000D0A00005741524E3A09C1ACBDD3CAA7CC
:10350000B0DCA3BAB7C7B7A8B5C4636C69656E74FD
:1035100069640D0A000000005741524E3A09C1ACDF
:10352000BDD3CAA7B0DCA3BAB7FECEF1C6F7CAA70F
:10353000B0DC0D0A000000005741524E3A09C1AC00
:10354000BDD3CAA7B0DCA3BAD3C3BBA7C3FBBBF22E
:10355000C3DCC2EBB4EDCEF30D0A00005741524E6E
:103560003A09C1ACBDD3CAA7B0DCA3BAB7C7B7A8E4
:10357000C1B4BDD328B1C8C8E7746F6B656EB7C757
:10358000B7A8290D0A0000004552523A09C1ACBD46
:10359000D3CAA7B0DCA3BACEB4D6AAB4EDCEF30D8D
:1035A0000A0000005741524E3A094D5154545F50A1
:1035B00061636B6574436F6E6E6563742046616909
:1035C0006C65640D0A0000007B226964223A313286
:1035D000332C226470223A7B000000002B00002074
:1035E0002254656D7065726174757265223A5B7BF9
:1035F0002276223A25647D5D2C0000002C000020FC
:103600002248756D6964697479223A5B7B2276225F
:103610003A25647D5D0000007D7D00005469707373
:103620003A094F6E654E65745F53656E644461740C
:10363000612D4D5154540D0A0000000053656E6415
:103640002025642042797465730D0A005741524E5B
:103650003A094544505F4E6577427566666572204B
:103660004661696C65640D0A000000005075626C6B
:1036700069736820546F7069633A2025732C204D5C
:1036800073673A2025730D0A000000006AA23821F2
:10369000009003A801F00CFE03AA6CA17148FEF78C
:1036A0004AF911A8012302AA00210090142001F078
:1036B00006F938B9129A91B2119801F04CFC11A890
:1036C00000F020FD15B000BD2DE9F043A9B0814602
:1036D000002028902790269025902490002780464F
:1036E00000240025484600F055FD0746032F04D06E
:1036F000042F46D0092F5BD14CE05B4824A925AAB2
:1037000028ABCDE90021029026AA27A9484601F05E
:103710001AFA8046B8F1000F32D10026BDF89400A5
:103720002899CDE90010BDF8983050A14D48279A4E
:10373000FEF701F95CA1279801F048FF0646F6B1B3
:103740002F21304601F026FF0646761C2422314602
:1037500003A801F09CFF00208DF8300003A8AFF211
:103760002431AFF2EC2353A2CDE9001050210DA873
:1037700001F09EFD56A10DA8FFF7D8FD00BF00BFC8
:1037800000BF484601F0DFFA18B953A13548FEF7EB
:10379000D2F810E0484601F011F920B956A131489D
:1037A000FEF7C9F803E05BA12E48FEF7C4F802E07B
:1037B0004FF0FF3800BF00BF01F088FB08F10100A7
:1037C00010B929B0BDE8F0833A21289801F0E2FE53
:1037D0000446FCB1641C05E014F8012B28466D1C5E
:1037E00021A90A542078302802DB20783928F3DD1B
:1037F000002021A9485521A801F0A0FE05464CA1B2
:10380000289801F0E3FE28B1012D04D14AA1154802
:10381000FEF791F804E01DB94AA11248FEF78BF8B3
:103820000F2F01D0032F05D1279801F0EAFC28982B
:1038300001F0E7FC00BFC4E7247379732F25732FD1
:1038400025732F636D642F2300000000537562738E
:10385000637269626520546F7069633A2025730D45
:103860000A000000003801402E000020746F7069CB
:10387000633A2025732C20746F7069635F6C656EEA
:103880003A2025642C207061796C6F61643A2025A0
:10389000732C207061796C6F61645F6C656E3A2087
:1038A00025640D0A00000000726571756573742F40
:1038B00000000000247379732F25732F25732F6365
:1038C0006D642F726573706F6E73652F25730000C2
:1038D0006F6A626B00000000546970733A094D51C1
:1038E0005454205075626C6973682053656E64206F
:1038F0004F4B0D0A00000000546970733A094D5196
:10390000545420537562736372696265204F4B0D86
:103910000A000000546970733A094D515454205301
:103920007562736372696265204572720D0A0000E8
:103930007265646C65640000474F4F4F46464646CB
:103940000D0A0000546970733A09415344415344CD
:1039500041440D0A00000000F0B50446142C06DABC
:1039600001EA020523EA010685EA060019E0282C8F
:1039700004DA81EA020787EA030012E03C2C0ADA43
:1039800001EA020501EA030787EA050602EA0307DE
:1039900087EA060005E0502C03DA81EA020787EA8D
:1039A0000300F0BD0146142901DAFE480AE0282987
:1039B00001DAFD4806E03C2901DAFC4802E0502922
:1039C00000DAFB487047F0B5024601209040441EE3
:1039D000E54301EA050020FA02F601EA0400C2F11B
:1039E000200C00FA0CF746EA07031846F0BDF0B5C4
:1039F0000246C2F1200C012000FA0CF0441EE543FF
:103A000001EA040000FA02F601EA0500C2F1200C06
:103A100020FA0CF746EA07031846F0BD2DE9F04FEF
:103A2000DDB007468A4615460AF1080909F1010981
:103A30004FEACA005B9048464FEAE97109EB916191
:103A40008E1148464FEAE97109EB91618911A9EBA2
:103A500081115C915C98002800DD761C5C98C0F1B7
:103A600040008144D04604E0002007F8080008F137
:103A70000108B8EB861FF7DB802007F80A00012158
:103A8000C1EB86115B9878545B98C0F30720022144
:103A9000C1EB861178545B98C0F307400321C1EB5A
:103AA000861178545B98000E0421C1EB861178547E
:103AB000C0485690C0485790BE48C0435890BE4832
:103AC000C0435990BD485A904FF00008A5E000242B
:103AD00052E0102C32D24FEA881000EB8400385CA0
:103AE000000601A941F824004FEA881000EB840089
:103AF000401C385C51F824104FF4803202FB001057
:103B000001A941F824004FEA881000EB8400801CD2
:103B1000385C51F82410121202FB001001A941F880
:103B200024004FEA881000EB8400C01C385C51F878
:103B30002410084401A941F824001CE0502C1AD29A
:103B4000E01E01AA52F82000A4F1080201AB53F8CC
:103B500022205040A4F10E0253F822205040A4F13C
:103B6000100253F8222080EA02010120FFF73FFFF4
:103B700001A941F82400641C502CAAD356985590F2
:103B80005798549058985390599852905A985190E9
:103B900000242AE005205599FFF729FF8346204697
:103BA000529B539A5499FFF7D7FE5844009051996D
:103BB0000098084400902046FFF7F4FE009908445E
:103BC000009001A850F824100098084400905298E2
:103BD0005190539852901E205499FFF708FF53902C
:103BE0005598549000985590641C502CD2D35699F7
:103BF00055980844569057995498084457905899A6
:103C000053980844589059995298084459905A9991
:103C1000519808445A9008F10108B045FFF657AF93
:103C20005698E8705698000AA8705698000C68706C
:103C30005698000E28705798E8715798000AA87196
:103C40005798000C68715798000E28715898E872C0
:103C50005898000AA8725898000C68725898000E7C
:103C600028725998E8735998000AA8735998000C5B
:103C700068735998000E28735A98E8745A98000A85
:103C8000A8745A98000C68745A98000E28745DB095
:103C9000BDE8F08F2DE9F04FADF58E5D07460E467D
:103CA000924698460DF58050D0F8E49140254FF0AB
:103CB000360B5C21C0F8BC11002405E0002041F265
:103CC0007C1169440855641C402CF7DBAE421FD0C0
:103CD000AE4210DD4A4631463846FFF79FFE0024CB
:103CE00006E019F8040041F27C1169440855641C8F
:103CF000142CF6DB16E0AE4214DA002405E0385D41
:103D000041F27C1169440855641CB442F7DB09E0B8
:103D1000002405E0385D41F27C1169440855641CBB
:103D2000AC42F7DB00240AE041F27C106844005DFD
:103D300080EA0B0041F23C1169440855641C402C98
:103D4000F2DB002406E041F23C106844005D1FA94C
:103D50000855641C402CF6DB002406E01AF8041019
:103D60001FAA04F140001154641C4445F6DB08EB23
:103D700005014A461FA8FFF751FE00240DE041F25D
:103D80007C116944095D0DF58050D0F8BC014140BB
:103D900041F2FC026A441155641C402CEFDB002404
:103DA00015E000009979825AA1EBD96EDCBC1B8F1B
:103DB000D6C162CA0123456789ABCDEFF0E1D2C31A
:103DC00041F2FC006844005D0AA90855641C402CBF
:103DD000F6DB002406E019F804100AAA04F14000FA
:103DE0001154641C142CF6DB4A4605F114010AA890
:103DF000FFF714FE0DF58E5DBDE8F08F2DE9F04F55
:103E000007468946099C00250026AC46A846AA46D6
:103E100000211CB900201060BDE8F08F0320B4FB26
:103E2000F0F04FF0030BB4FBFBFE0BFB1E4BBBF1A2
:103E3000000F02D04FF0010B01E04FF0000B00EB40
:103E40000B06B6F1804F05D34FF0FF3010606FF0D6
:103E50002900E1E7B600701C814500D327B9701C2A
:103E600010606FF02900D7E70320B4FBF0F000EBFF
:103E700040060025394629E013F801CB13F8018BE1
:103E800013F801AB87484FEA9C0B10F80B0001F8C0
:103E9000010B4FEA0C1000EB281000F03F00DFF898
:103EA00004B21BF8000001F8010B4FEA880000EB98
:103EB000AA1000F03F001BF8000001F8010B0AF007
:103EC0003F001BF8000001F8010BED1CB542D3D3F5
:103ED000A5422DD213F801CB681CA04202D213F8E0
:103EE000010B00E0002080466E48CCF3850B10F8F3
:103EF0000B0001F8010B4FEA0C1000EB281000F04A
:103F00003F00DFF8A0B11BF8000001F8010B681CAE
:103F1000A04207D23F2000EA88001BF8000001F809
:103F2000010B02E03D2001F8010B3D2001F8010BDF
:103F3000C81B10600020087000BF6DE72DE9F04736
:103F4000074689469046DDF820C000210022002463
:103F500000260025002004460246014645E00026D2
:103F600001E0491C761C614502D2585C2028F8D03B
:103F7000614500D13BE0ACEB0100022807D3585C5F
:103F80000D2804D1481C185C0A2800D12CE0585C8C
:103F90000A2800D128E01EB16FF02B00BDE8F087A1
:103FA000585C3D2806D1601C0446022802D96FF0F7
:103FB0002B00F3E7585C7F2806DC585CDFF8E8A0AC
:103FC0001AF800007F2802D16FF02B00E6E7585C5A
:103FD000DFF8D4A01AF80000402803DA14B16FF01B
:103FE0002B00DBE7521C00BF491C6145B7D300BF63
:103FF0001AB90020C8F80000D0E7D00800EB400054
:104000004FEA400A02F0070000EB40004000C01DEC
:104010000AEBD002121B0FB1914504D2C8F8002060
:104020006FF02900BAE703240020064602463D4609
:1040300031E018780D2805D018780A2802D01878B1
:10404000202800D125E01878DFF85CA01AF80000DD
:10405000402801D1012000E00020241A1878DFF860
:1040600048A01AF8000066F39F100646501C02464E
:1040700004280DD1002214B1300C05F8010B012CDD
:1040800002D9300A05F8010B022C01D905F8016BA1
:1040900000BF491E5B1C0029CBD1E81BC8F80000FB
:1040A00000207BE7DC9000081C91000870B50446F6
:1040B0000E460025206898B901202073304601F093
:1040C00071F820602068E0B100206060A66003E025
:1040D0000020216848556D1CA068A842F8D810E05F
:1040E0000220207303E00020216848556D1CA06861
:1040F000A842F8D800206060A068B04201D2002039
:10410000206070BD10B50446207B012802D12068D4
:1041100001F077F8002020606060A060207310BD7F
:104120000246002301230DE002F07F000870D2094F
:104130002AB1087840F080000870491C01E0184658
:1041400070475B1C042BEFDD4FF0FF30F8E7F0B554
:1041500004460D462646012300201060002114E08D
:10416000775C07F07F07106807FB03001060705C46
:1041700000F0800008B9481CF0BDDB01B3F5001F5A
:1041800002D36FF00100F7E7491CA942E8DB4FF0CA
:10419000FF30F1E7F8B50446FF2720780511012D1F
:1041A00001DB0E2D01DD3846F8BD032D24D10020A2
:1041B00000906A460421601CFFF7C9FF2044461C9A
:1041C0000098022803D3207800F0010008B1FF20F6
:1041D000EAE77078317840EA0120801C0099884233
:1041E00001D9FF20E0E7F8A1B01C01F0EFF908B118
:1041F0000F2700E0032700E02F463846D4E72DE9DB
:10420000FF4F83B082468B469146159C00250020C7
:1042100002900F270190484601F00EFA0FFA80F83D
:10422000B9F1000F03D1012007B0BDE8F08F08F10C
:104230000200384487B2109808B145F00205129880
:1042400078B145F00405129801F0F6F9C0B2029079
:10425000139801F0F1F901460298001D0844384412
:1042600087B2119820B1012804D0022808D104E0B7
:1042700000BF07E045F00C0504E045F0140501E03F
:104280000220D1E700BF149808B145F02405BAF127
:10429000000F02D0BBF1000F01D10320C4E745F0AD
:1042A000C005504601F0C8F90646584601F0C4F969
:1042B0003044001D384487B239462046FFF7F6FEE9
:1042C000206808B90420AFE73946206801F024FAD5
:1042D00010216268501C606020688154D4E900237A
:1042E000D118781FFFF71CFF00B201900198002839
:1042F00004DA2046FFF706FF052095E7616801987C
:104300000844606000216268501C6060206881542D
:1043100004216268501C6060206881544D216268ED
:10432000501C60602068815451216268501C60609C
:104330002068815454216268501C60602068815458
:104340006268501C60602068815404216268501CBF
:104350006060206881546168481C60602068455432
:104360000698010A6268501C6060206881540698B3
:10437000C1B26268501C606020688154C8F3072194
:104380006268501C6060206881546268501C6060E4
:10439000206800F80280D4E9001288184246494695
:1043A00001F002F960684044606005F00400B8B3B1
:1043B0000026139808B986A01390129801F03CF9D2
:1043C00086B2310A6268501C60602068815462685D
:1043D000501C606020688654D4E900128818324668
:1043E000129901F0E1F8606830446060139801F0C0
:1043F00023F986B2310A6268501C606020688154DB
:104400006268501C606020688654D4E900128818E5
:104410003246139901F0C8F860683044606000BF0C
:1044200005F08000C8B1504601F006F986B2310AA5
:104430006268501C6060206881546268501C606033
:1044400020688654D4E9001288183246514601F09B
:10445000ABF860683044606000BF05F04000C8B150
:10446000584601F0E9F886B2310A6268501C606073
:10447000206881546268501C606020688654D4E9CA
:10448000001288183246594601F08EF860683044B0
:10449000606000BF0020C7E610B504460221204638
:1044A000FFF704FE206808B9012010BDE021626812
:1044B000501C60602068815400216268501C60605C
:1044C000206881540020F0E701464878022801D096
:1044D00001207047887810B18878012801D1C87808
:1044E000F7E7FF20F5E72DE9FF4F83B08346174636
:1044F0009946139C002500260020029001908046DA
:10450000BBF1000F03D1012007B0BDE8F08F0026FA
:104510000AE00498805D232803D00498805D2B284E
:1045200001D10220F0E7761C0498805D0028F0D1CC
:1045300048F03008119808B148F0010806EB09006E
:10454000851C109820B1012804D002280AD105E06A
:1045500000BF09E048F00208AD1C05E048F004087F
:10456000AD1C01E00320CFE700BF67B33878022815
:1045700021D14FF0000A00BF50460AF1010A385C11
:104580007D28F9D1AAF1030A0AF1070002900298E6
:10459000A9EB000AE81CA0EB0A012046FFF786FD04
:1045A000206808B90420AFE7EA1CA2EB0A012068E2
:1045B00001F0B2F81FE0691D2046FFF777FD206883
:1045C00040B90420A0E70AE024637265710000008E
:1045D00000000000691D206801F09EF80BE0691DD5
:1045E0002046FFF763FD206808B904208CE7691DA9
:1045F000206801F091F86168481C6060206800F84C
:104600000180D4E9000281182846FFF789FD019056
:104610000198002804DA2046FFF774FD052073E7AF
:104620006168019808446060C6F307216268501C05
:104630006060206881546268501C60602068865405
:10464000D4E9001288183246049900F0ADFF606882
:1046500030446060109860B14FEA1B216268501CC2
:104660006060206881546268501C6060206800F8B7
:1046700002B0C7B1387802280BD1D4E900128818EB
:104680003946029A01F003F86168029808446060B4
:1046900009E0D4E9001288184A46394600F0F7FFCD
:1046A00060684844606000202EE72DE9F04190B03A
:1046B00004460D4616469846169F2346F7A230211B
:1046C00004A8009500F0F4FD01200021CDE90001CF
:1046D00033460A4604A9CDE902070A20FFF703FF83
:1046E00018B1012010B0BDE8F0810020FAE72DE9F3
:1046F000F04F85B080460D4691460120049000277A
:10470000002600244FF0000A404600F095FF00F11B
:104710000D0B584600F046FD07461FB9049805B03A
:10472000BDE8F08F4246E3A1384600F0ABFD3846C5
:1047300000F082FFC6B2F01D00EB050AAAEB0500EF
:1047400000F030FD044624B9384600F05AFD0498C4
:10475000E5E70220207000206070A67032463946DE
:10476000E01C00F094FF290EF01C2154C5F3074112
:10477000301D2154C5F30721701D2154B01D25544F
:1047800001200021CDE9000153462246CDA1CDE90B
:1047900002090A20FFF7A7FE08B900200490384656
:1047A00000F02FFD204600F02CFD0498B7E72DE91E
:1047B000F84380460C4615461E462F2108F1060098
:1047C00000F0E8FE07460020009017B90120BDE880
:1047D000F8837F1C6A46042108F10100FFF7B7FC4B
:1047E000252000F0DFFC2060206808B90220EEE7F9
:1047F0002521206800F090FF24223946206800F02F
:1048000046FF243700982C3830803188481C00F04F
:10481000C9FC2860286820B9206800F0F2FC032059
:10482000D5E73288511C286800F076FF3288394677
:10483000286800F02CFF0020C9E72DE9FF5F07463C
:104840000D469046384600F0F7FE86B2284600F046
:10485000F3FE1FFA80FA4FF00009F01D00F0A2FCF1
:1048600004461CB9012004B0BDE8F09FF11D2046AC
:1048700000F052FF9CA0016821608088A080324631
:104880003946204600F090FE284600F0D5FE8346CB
:104890000120002100915B462A46CDE902080191E2
:1048A00021460A20FFF71FFE10B94FF0000901E072
:1048B0004FF00109204600F0A4FC4846D3E72DE95B
:1048C000FF5F8046174699460E9C0026B246B346C7
:1048D0000025B8F1000F03D1012004B0BDE8F09F1E
:1048E0000BE057F8250008B90220F6E757F8250035
:1048F00000F0A2FE0644681CC5B24D45F1DB09EB91
:104900004900801C00EB060A0AF105012046FFF76A
:10491000CDFB206808B90320DFE782216268501CC4
:10492000606020688154D4E9000281185046FFF786
:10493000F7FB0FFA80FBBBF1000F04DA2046FFF70C
:10494000E1FB0420C9E76068584460604FEA182121
:104950006268501C6060206881546268501C60600E
:10496000206800F80280002524E057F8250000F0B8
:1049700063FE0646C6F307216268501C606020682B
:1049800081546268501C606020688654D4E900231A
:10499000D01857F82510324600F006FE6068304403
:1049A00060600198C1B26268501C606020688154E8
:1049B000681CC5B24D45D8DB00208EE70146FF20BC
:1049C0008A78A2B9CA78142A11D10A7932B1012A97
:1049D00005D0022A04D0802A06D103E000BF00BF20
:1049E000002003E0012001E0022000BF00BF70476B
:1049F0002DE9F05F80460F4691461C460026B246E0
:104A0000B3460025B8F1000F02D10120BDE8F09FA8
:104A10000BE057F8250008B90220F7E757F8250002
:104A200000F00AFE0644681CC5B24D45F1DB0220C9
:104A300000EB490000EB060A0AF105012046FFF7EA
:104A400035FB206808B90320E0E7A2216268501C0A
:104A5000606020688154D4E9000281185046FFF755
:104A60005FFB0FFA80FBBBF1000F04DA2046FFF773
:104A700049FB0420CAE76068584460604FEA182187
:104A80006268501C6060206881546268501C6060DD
:104A9000206800F80280002548E000002473797344
:104AA0002F25732F25732F64702F706F73742F6AE7
:104AB000736F6E007B2264735F6964223A222573F0
:104AC000227D0000247379732F37625564393234A4
:104AD0004931762F54455354312F64702F706F73C2
:104AE000742F6A736F6E000024637273702F00005E
:104AF00057F8250000F0A0FD0646C6F307216268BE
:104B0000501C6060206881546268501C606020689E
:104B10008654D4E90023D01857F82510324600F007
:104B200043FD606830446060681CC5B24D45DFDB02
:104B300000206BE7014601208A781AB9CA781E2A3C
:104B400000D1002070472DE9FC5F81460D461446D8
:104B50001E46DDE90C8B99F8000000F00F0A0020DA
:104B600001900AF008000090CAF341008BF80000A1
:104B700001AA042109F10100FFF7E9FA4844471CA2
:104B80000198022802D30AF0010010B1FF20BDE80D
:104B9000FC9F7878397840EA012020802088801CAA
:104BA0000199884201D9FF20F1E7AFF2E451B81C26
:104BB00000F00CFD08B10F20E9E79BF8000020B1E0
:104BC00001283DD0022877D13BE0009808B1FF20B2
:104BD000DDE72188481C00F0E5FA2860286808B95C
:104BE000FF20D4E72288511C286800F095FD228818
:104BF000B91C286800F04BFD0198801E2188401ADE
:104C0000A8F80000B8F80010481C00F0CBFA30609B
:104C1000306820B9286800F0F4FAFF20B7E7B8F848
:104C20000020511C306800F077FDB8F80020B4F87F
:104C300000C0BB1C0CEB0301306800F028FD4FE006
:104C400000BF2088801C0199884201D9FF209EE77F
:104C50002088C01C395C2088801C385C41EA002117
:104C60000E9801800E9808B9FF2090E72188481C13
:104C700000F098FA2860286808B9FF2087E72288A2
:104C8000511C286800F048FD2288B91C286800F0F3
:104C9000FEFC0198001F2188401AA8F80000B8F80F
:104CA0000010481C00F07EFA3060306828B928688F
:104CB00000F0A7FAFF206AE710E0B8F80020511CC6
:104CC000306800F029FDB8F80020B4F800C03B1DA2
:104CD0000CEB0301306800F0DAFC01E0FF2056E73E
:104CE00000BF2B21284600F055FC20B9232128467F
:104CF00000F050FC08B1FF2049E7002047E770B5FD
:104D000005460C4604212046FFF7D0F9206808B973
:104D1000012070BD40216268501C60602068815491
:104D200002216268501C6060206881542912626808
:104D3000501C6060206881546268501C606020686C
:104D400085540020E5E701464878022801D001207B
:104D50007047887820B9C8780A2801D10020F7E781
:104D60000120F5E770B505460C4604212046FFF703
:104D70009DF9206808B9012070BD50216268501C5F
:104D800060602068815402216268501C6060206865
:104D9000815429126268501C6060206881546268E6
:104DA000501C6060206885540020E5E70146487883
:104DB000022801D001207047887820B9C8780A28D5
:104DC00001D10020F7E70120F5E770B505460C4654
:104DD00004212046FFF76AF9206808B9012070BD58
:104DE00062216268501C6060206881540221626800
:104DF000501C60602068815429126268501C6060F9
:104E0000206881546268501C6060206885540020CE
:104E1000E5E702465078022801D0012070479078DB
:104E2000B0EB112F05D1D078CBB2984201D1002040
:104E3000F4E70120F2E770B505460C460421204650
:104E4000FFF734F9206808B9012070BD702162684D
:104E5000501C60602068815402216268501C6060B0
:104E60002068815429126268501C60602068815457
:104E70006268501C6060206885540020E5E70146A8
:104E80004878022801D001207047887820B9C87876
:104E90000A2801D10020F7E70120F5E710B5044604
:104EA00002212046FFF702F9206808B9012010BD51
:104EB000C0216268501C60602068815400216268D3
:104EC000501C6060206881540020F0E710B54FF45A
:104ED0000071804800F020FC00207F49088010BD50
:104EE0007D48008808B9012070477B4800887B49CD
:104EF0000988884203D1002077490880F4E7764882
:104F00000088764908800120EEE72DE9F04104464B
:104F10000D46C826204600F08FFB87B23A46214650
:104F20006F48FCF7EFFC0FE0FFF7DAFF48B92946BE
:104F3000684800F04BFB20B1FFF7C8FF0020BDE838
:104F4000F0810A20FCF721FC301EA6F10101CEB24F
:104F5000EAD10120F3E730B589B004460D46FFF7EA
:104F6000B5FF2A465FA101A800F08CF961A101A854
:104F7000FFF7CBFF20B92A4621465948FCF7C2FC6F
:104F800009B030BD70B50546002400BFFFF7A8FF8B
:104F900080B959A14F4800F019FB044654B13A2199
:104FA000204600F0F7FA044614B1641C204670BD98
:104FB0000020FCE70520FCF7E8FB281EA5F1010115
:104FC0008DB2E3D100BFF2E708B501210420FCF760
:104FD0005DF910208DF803000120ADF800000320DA
:104FE0008DF8020069464648FBF794FE0022012135
:104FF0004348FBF740FFFA20FCF7C7FB01221146AC
:105000003F48FBF738FF4FF4FA70FCF7BEFBFFF7A1
:105010005DFF3CA13D48FCF78EFC03E04FF4FA70C5
:10502000FCF7B3FB3AA13BA0FFF76FFF0028F5D1D7
:105030003AA13648FCF77FFC03E04FF4FA70FCF726
:10504000A4FB33A138A0FFF760FF0028F5D13AA1F7
:105050002E48FCF770FC03E04FF4FA70FCF795FB68
:105060002BA139A0FFF751FF0028F5D13AA127481D
:10507000FCF761FC03E04FF4FA70FCF786FB39A102
:105080003AA0FFF742FF0028F5D140A11F48FCF7E6
:1050900052FC08BD10B540F225511148FCF71AFB2F
:1050A000B8B10D480088B0F5007F02D300200A494E
:1050B00008800B48001D0088C1B20748028800889C
:1050C000401C054B18800348815420210448FCF7FC
:1050D000F8FA10BDB4040020300000203200002097
:1050E0000044004041542B43495053454E443D2514
:1050F000640D0A003E0000004950442C00000000EE
:1051000000080140312E2041540D0A0000380140B2
:105110004F4B000041540D0A00000000322E204386
:10512000574D4F44450D0A0041542B43574D4F44B2
:10513000453D310D0A000000332E2041542B4357CA
:10514000444843500D0A000041542B435744484300
:10515000503D312C310D0A00342E2043574A415026
:105160000D0A0000474F54204950000041542B4382
:10517000574A41503D2242333038222C22423330AC
:105180003862333038220D0A00000000352E2045E9
:1051900053503832363620496E6974204F4B0D0A11
:1051A0000000000070B5064600F002FB056806F13D
:1051B0000B0020F00704B4429CBF002070BD2B46BA
:1051C0006A68BAB11068A04210D304F1080188429D
:1051D0003CBF5068586007D351681019416011688E
:1051E000091B016058601460101D70BD13465268A1
:1051F000002AE7D12146284600F0E6FA0028DED151
:1052000070BD70B50446051F00F0D2FA0068002C8E
:1052100014BF446870BD002C18BFAC423CBF204690
:105220006468F8D301680A18AA4218BF456003D120
:105230002A6805461144016028684119A1421CBF33
:105240006C6070BD6168696021680844286070BD49
:105250007CB51D4616460C00009001D02044401E2F
:10526000074B7B442A4669460190304600F0A1FB7B
:1052700005461CB10020694600F0AEFB28467CBD07
:105280007D0700000FB41CB5084B06AA7B44694695
:105290000090059800F08DFB04460020694600F060
:1052A0009BFB20461CBC5DF814FB00004907000076
:1052B0000FB47CB50C0009AA009001D02044401E18
:1052C000084B7B4469460190089800F072FB054644
:1052D0001CB10020694600F07FFB28467CBC5DF8CD
:1052E00014FB00001D07000070B50C460546012A9E
:1052F00005D02878800600D5EA69002302E0012362
:1053000005E05B1C934202D2E05C0028F9D1A86959
:10531000E618C01AA861286A18442862284600F0D6
:105320009DFA04E0D5E9012114F8010B9047B4423D
:10533000F8D3284600F0A8FA70BD00002DE9F0412E
:105340000646002410687529314616A510D000F0D5
:10535000ACFA002802DA404213A507E031688A0758
:1053600001D512A502E0490704D511A5012401E0E9
:1053700000F0A4FA00210A2206F1240709E0B0FB9C
:10538000F2FCB0FBF2F302FB1C00303078541846FC
:10539000491C0028F3D123462A463046BDE8F04197
:1053A00000F095BA000000002D0000002B00000066
:1053B000200000002DE9F05F894604464FF0000A06
:1053C000DFF874B1FB44C0F820A02046E1688847AC
:1053D000002874D0252806D0D4E901219047206AFE
:1053E000401C2062F1E700265F462046E1688847BE
:1053F0002028054607DB312D05D2781910F8200C3E
:1054000008B10643F1E7B00701D526F00406C4F859
:105410001CA00027C4F818A02A2D09D0284601F0A6
:10542000F0FC38B304EB8708303DC8F8185019E099
:1054300059F8041B204604EB87029161E168884714
:10544000012F054618D1E069002820DA26F0200651
:105450001DE0D8F8180000EB800005EB4000303864
:10546000C8F818002046E1688847054601F0C9FCE5
:105470000028EED1012F0AD02E2D08D12046E16858
:1054800088477F1C0546022F46F02006C4DBA06932
:10549000002803DA404246F00106A061F00701D07F
:1054A00026F010066C2D0BD0682D09D04C2D39D06C
:1054B0006A2D35D0742D35D07A2D33D016E038E0F2
:1054C000E1682F4620468847B842054609D16C2F2F
:1054D00026D04FF48060E1680643204688470546A1
:1054E00004E06C2F1AD04FF4807006430DB3A5F181
:1054F0004100192802D8203546F400664A4629465C
:10550000204626604E46FAF74DFE80B101280BD0AA
:10551000F61D26F0070000F1080956E74020E4E7F1
:105520008020D8E70020D6E706F104094DE7284699
:1055300052E7206ABDE8F09FD43D000070B50646F2
:1055400000F03AF90468054630460A22002100F0CE
:1055500085FB2C6070BD00000B4910B5A1F17C02E9
:105560000A4CC2E93712372106E000EB104342F83B
:105570002130074B00FB03400B1EA1F10101F4DCBD
:1055800010BD0120E8E7000030070020E119D666D1
:10559000CD0D0100401ECAB210F8011F8A4202D090
:1055A0000029F9D10020704710B5431E13F8014FB0
:1055B000002CFBD105E011F8014B002C03F8014B46
:1055C00003D0521EF7D20021197010BD30B5054628
:1055D0000B462A4613F8014B12F8010B08B1A04202
:1055E000F8D01CB1002802D06D1CF1E7284630BD70
:1055F00040EA0103024630B59B0710D14FF0013459
:1056000000E008C208C91D1B9D4315EAC41FF8D05D
:1056100013F0FF0102F8011B0DD01B0AF8E711F887
:10562000013B002B02F8013B05D011F8013B002B98
:1056300002F8013BF3D130BD10B5431C02E010F875
:10564000011B71B18107FAD14FF0013202C88C1AE7
:105650008C4314EAC211F9D0C01A0A0603D0C01E46
:1056600010BDC01A10BD0A0401D0801E10BD090271
:10567000FCD0401E10BD421E12F8013F002BFBD192
:1056800011F8013B002B02F8013BF9D17047032AC6
:1056900040F2308010F0030C00F0158011F8013B4F
:1056A000BCF1020F624498BF11F801CB00F8013B36
:1056B00038BF11F8013BA2F1040298BF00F801CBFA
:1056C00038BF00F8013B11F0030300F0FF82083AF5
:1056D000C0F0088051F8043B083A51F804CBA0E828
:1056E0000810F5E7121D5CBF51F8043B40F8043B7D
:1056F000AFF30080D20724BF11F8013B11F801CBB2
:1057000048BF11F8012B24BF00F8013B00F801CB82
:1057100048BF00F8012B70474FF000020429C0F089
:10572000128010F0030C00F01B80CCF1040CBCF1D3
:10573000020F18BF00F8012BA8BF20F8022BA1EB25
:105740000C0100F00DB85FEAC17C24BF00F8012B0A
:1057500000F8012B48BF00F8012B70474FF0000202
:1057600000B5134694469646203922BFA0E80C5057
:10577000A0E80C50B1F12001BFF4F7AF090728BF32
:10578000A0E80C5048BF0CC05DF804EB890028BFAE
:1057900040F8042B08BF704748BF20F8022B11F0D7
:1057A000804F18BF00F8012B704770477047704753
:1057B00000487047A0070020004870479807002065
:1057C000704770477047704738B504460A46002056
:1057D0006946AFF30080002808BF38BD0246009933
:1057E000204600F0B1FA012038BD012000F09FBD35
:1057F000F8B5AFF30080054600200C46102000BF2E
:105800000646A819A0420DD9324669460020AFF3DA
:105810000080070008BF00F08AFD0098A04218BF72
:105820000546C419FFF7C4FF05600746F01D20F0C8
:1058300007004619284600F00AF8B44208BFF8BD30
:10584000A21B31463868BDE8F84000F07DBA00215F
:105850000160C0E9011070471020704770B5044620
:1058600085690068C10601D5302600E02026C00702
:1058700007D070BDD4E9012130469047206A401C12
:1058800020626D1EF6D570BD70B50446856900783E
:10589000C00707D170BDD4E9012120209047206ABC
:1058A000401C20626D1EF6D570BD09684A0501D501
:1058B00040B27047C905FCD500B2704709684A0577
:1058C00001D5C0B27047C905FCD580B270472DE93B
:1058D000F0470D4699469246044600F124080168B7
:1058E000880604D5E06921F01001216000E0012064
:1058F000A84201DD471B00E00027A1697A1902EBED
:105900000900081AA0612078C00602D42046FFF7DB
:10591000A5FF002608E0D4E901211AF80600904707
:10592000206A401C761C20624E45F4DB2078C006BD
:105930000AD52046FFF792FF06E0D4E90121302086
:105940009047206A401C2062381EA7F10107F4DC52
:1059500007E0D4E9012118F805009047206A401CAF
:105960002062281EA5F10105F3DC2046FFF78CFF1D
:105970002078000602D50220BDE8F0870120FBE771
:1059800011680268006A530501D508700AE0D30562
:1059900001D5088006E0130603D5C217C1E900024D
:1059A00000E008600120704701694A1C0261087824
:1059B000704700B58FB0CDE901310021059105494F
:1059C0007944CDE9031011466846FFF7F3FC0FB0A8
:1059D00000BD0000E5FFFFFF0A6802F8010B0A6046
:1059E0007047D1E900239A4202D2531C0B60107019
:1059F000704710B5436913B1AFF3008001E0FFF7C2
:105A000073FC012010BD127800F124010A700022FD
:105A10004A700122EDE711684FF0FF32E9E700001C
:105A20002DE9FF5F15468A460446DFF8AC80F8444E
:105A30000027D8E900103E46CDE9001010E03AF802
:105A400016106A4602A800F052FC411C07D02178CB
:105A5000890603D5E269391891420DD80744761CAE
:105A60002078800602D5E069B84205DDAE42E6DB6B
:105A70003AF816000028E2D1A069C01BA0612046B8
:105A8000FFF7ECFED8E90010CDE90010002017E088
:105A90003AF818106A4602A800F029FCB0F1FF3F5E
:105AA00081460BD000250DF1080B05E0D4E901215A
:105AB0001BF8050090476D1C4D45F7D308F1010018
:105AC000B0428046E4DB206A384420622046FFF77B
:105AD000DBFEBDE8FF9F00007E3700002DE9F041AE
